:020000040000FA
:060000000A128A11FC2F18
:100ED80083160317880189018316031386010713F4
:100EE80083160317871183160313181519309900F1
:100EF800981683120313181698178C1E842F852FA3
:100F0800D02F1A08F0007008F200A82FFC308600D5
:100F1800D02F60308600D02FDA308600D02FF23004
:100F28008600D02F66308600D02FB6308600D02FAE
:100F3800BE308600D02FE0308600D02FFE308600ED
:100F4800D02FF6308600D02F7208F000F10171081A
:100F5800003A0319B02FD02F7008303A03198A2F9E
:100F6800013A03198D2F033A0319902F013A0319F7
:100F7800932F073A0319962F013A0319992F033A29
:100F880003199C2F013A03199F2F0F3A0319A22F17
:100F9800013A0319A52FD02F851CD32FD42FDF2F6B
:100FA8007308031DD82FD92FDF2FF301F30A41301F
:100FB80099000614812F051DE22FE32FEE2F7308E9
:100FC800031DE72FE82FEE2FF301F30A42309900B3
:100FD8000610812F8518F12FF22FF82F0519F52FFC
:100FE800F62FF82FF301812F812F0A128A1100287A
:080FF80083010A128A116C2F1B
:04400E00D4ECFFFFF0
:00000001FF
